:020000000E2CC4
:0A00060000000000000000000800E8
:08001000FA1FF2130030080092
:100018007B15FB1F16280130F300F201F101F001F6
:08002800FA0DF20CFF30080094
:100030001D3083120313FC009130FD00FD0B1E28C0
:06004000FC0B1E28080065
:10004600423083120313FD00FD0B27280000080031
:0E005600F201F101F001F801F30100300800A1
:1000640083120313BA1B38288812392888163A1BBE
:100074003D2808123E280816BA1A42288811432837
:1000840088153A1A47280811482808152A184C28B0
:1000940008144D280810881403208810BA1954280D
:1000A4008812552888163A19592808125A28081609
:1000B400BA185E2888115F2888153A186328081131
:1000C400642808152A186828081469280810881450
:1000D400032088102A1C7028182071282320080067
:0E00E4001D3083120313FD00FD0B762808006B
:1000F20083120313F8010830FC00700DF80D740828
:10010200F80203188628F8070310F00DFC0B7E286E
:020112000800E3
:100114007B14FB1F9528F201FA1FFF30F200F10057
:0A012400F000FA0DF20CFF300800A5
:10012E00710DF80DF90D7408F8027508031C750FA2
:10013E00F902F00DF10D0F30FC00710DF80DF90DF7
:10014E007408701CB028F8027508031C750FF902AC
:10015E00B528F80775080318750FF907F00DF10D9E
:10016E00FC0BA4287018C1287408F807750803182A
:08017E00750FF90700000800ED
:10018600A0017208031DD8287108F2007008F1005A
:10019600F001A0157208031DD8287108F200F101BC
:1001A600A011201672080319E6282008F302031D81
:1001B600031CEA280310F21BEE28F00DF10DF20DD8
:1001C600F30BDE28EA280130FC002B20F128023050
:0E01D600FC000C20F1280430FC00082008007A
:1001E400FB14FB1FFC28FF30F300F200F100F000C9
:0801F400FA0DF20CFF300800C7
:0E01FC008312031329088A00280882000800D5
:10020A00831203139F01C0309F0483161F179F1781
:10021A0083123608F000F00D7010F00D7010F00D1A
:10022A00701070089F041F1472201F151F1D1F29AC
:10023A0000001B291F101E08F100F00183161E087A
:08024A00F0040030F10408008B
:1002520083120313FB017308031D77080319802916
:1002620072087606FA007708F3077E30031C3D29F0
:10027200F302031883294029F302031C862972081A
:10028200F8007108FC007008FD00F817F61703105B
:10029200F201F101F0011830A0007D1C5A29740806
:1002A200F00775080318750FF10776080318760F23
:1002B200F207F20CF10CF00CF80CFC0CFD0C031024
:1002C200A00B4E29F21B6A29F80DF00DF10DF20D6B
:1002D200F3037B1B701C7C29F81F7C29F00A03198D
:1002E200F10A0319F20A031D7C29F20CF10CF00C3D
:1002F200F30A03198329FA1FF21300308829013007
:100302002B2088290230F220882904300C2000009A
:020312000800E1
:100314008316031388100810081188110812881214
:1003240083128810081088120812881108111820E6
:100334001820182088150815881403208810182000
:10034400881403208810182088140320881018208B
:10035400081188140320881018208814032088109A
:10036400881188168814032088101820881208150C
:10037400881403208810081188140320881018207A
:100384008814032088100815881403208810182066
:100394000811881403208810881608168815081573
:0C03A40088140320881018202A14080078
:1003B00083120313B801033038020318E629380802
:1003C0003707840020308000B80ADB293808370757
:1003D00084008001B80338083707B9000A30F400F8
:1003E0003608F00079207808F0003030F00739083E
:1003F0008400700880000A30F4003608F00079208C
:100400007008B6007008003A031D072A092AB803CD
:04041000EB290800CC
:10041400831203132A103608BA0032202A14080063
:1004240083120313360803178D0083168C130C14E0
:0804340083120C08F00008001F
:10043C0083120313FB01730803195B2A7208FA0079
:10044C00F2178E30F302F31F5E2AF309F30A083019
:10045C007302031C412AF300F10D7208F100F20142
:10046C0008307302031C412AF300F10DF1017308EB
:10047C00031D0310492A73080319492A0310F20CAF
:10048C00F10CF30B442A7B1B711C532A031C532ABB
:10049C00F10A0319F20AF21B6A2AFA1F6D2AF209F1
:1004AC00F109F10A0319F20A6D2AF201F1016D2A20
:1004BC007B14FB1F702AF201FA1F702AFF30F20026
:1004CC00F100FA0DF20C702A0130FC00722A003097
:1004DC00FC00722AFF30FC00FC080319762A8A20E3
:0A04EC007108F0007208F10008002A
:1004F60083120313FB01FA01F9018030F800F10CB5
:10050600F00C031C8F2A7408F90775080318750F79
:10051600FA070318FB0A0310F01F972A7408FA0754
:1005260075080318750FFB07FB0CFA0CF90CF80C91
:10053600031C822A7B08F3007A08F2007908F1008E
:060546007808F000080037
:10054C00831203137008F8007108F000F101F20136
:10055C00F301FB01FC019630F300FA01F01FBC2AF9
:10056C00F809F009F80A0319F00AFA177008F100F3
:0C057C007808F000F801F201C32008002C
:10058800831203137408003A031DD32A7508003A2E
:10059800031DD32AFF30F0007F30F1002C2B83128B
:1005A8000313FD01F901F8017108700403190034FF
:1005B80071087506FA00FA1BFD09FB01F51FE92A07
:1005C800F409F509F40A0319F50AF11FF02AF009EC
:1005D800F109F00A0319F10A71087504FA00FA1B07
:1005E800052B97207B18182BFD1F0034F009F10903
:1005F800F00A0319F10AF809F909F80A0319F90ABE
:100608000034F51F142BF11B102B7108F90070082A
:10061800F800F101F001F82AF101F001F00A0034C4
:10062800F109F009FB0AF52AF80A0319F90A74080E
:100638007802031DF82A75087902031DF82AF901C2
:10064800F801F00A0319F10AF11FF82A0000FF3433
:02065800080098
:10065A0083120313AC01AD01AE01AF01B60105214E
:10066A00A622E330F4003630F5007A30F6007D3009
:10067A00F70029211E227008B4007108B500643001
:10068A00F4000030F5003408F0003508F100C42207
:10069A007008B2007108B3003208F0003308F100A4
:1006AA006430F4000030F5007B227008B000710855
:1006BA00B10030083402F0003108031C013E350253
:1006CA00F1000A30F4000030F500C4227008AC00D2
:1006DA007108AD000A30F4000030F5007B223008C2
:1006EA00F00731080318013EF10770083402AE0022
:1006FA007108031C013E3502AF0030303207F000AA
:10070A002B088400700880002B0A840030302C07E4
:10071A00F0007008800002302B07840030302E076A
:08072A00F000700880000800D7
:10073200AB2B803083120313AB00BE2BC030AB0057
:10074200BE2B9430AB00BE2BD430AB00BE2B80301E
:10075200AB00BE2B831203132B08013A03199A2B09
:100762002B08023A03199F2B2B08033A0319A22BD9
:100772002B08043A0319A52BA82B2C03F0002B08F5
:10078200F0077008AB007008BA0032202A10AE01E0
:100792002E082D07840000080319D72B2E082D07D9
:1007A20084000008B6000A22AE0AC92B2A140800E7
:0C07B200831603138701831287010800DF
:1007BE00FF3083160313860088308B000117080064
:1007CE00FE208A110A128000840AA80A0319A90AB7
:0807DE00F003031DE72B0800E6
:0E07E600FF308316031385000E309F000800BD
:1007F400103083120313B600122270080313B600DC
:080804002B08B700D821080001
:10080C008A210130BA0032200C30BA0032200800A4
:10081C00303083120313A1003030A2003030A3001B
:10082C00A4010624F323DF23D9232130AB002D238D
:10083C000130AB000130AC002130AD0099232530E4
:10084C00AB00FA230230AB000130AC002530AD0018
:06085C0099231B2C302C37
:02400E004A2F37
:00000001FF
