:02000000B12B22
:0A00060000000000000000000800E8
:100010001D3083120313FC009130FD00FD0B0E28F0
:06002000FC0B0E28080095
:10002600423083120313FD00FD0B17280000080061
:08003600FA1FF213003008006C
:10003E007B15FB1F29280130F300F201F101F001BD
:08004E00FA0DF20CFF3008006E
:0E005600F201F101F001F801F30100300800A1
:10006400A0017208031D47287108F2007008F1000E
:10007400F001A0157208031D47287108F200F10170
:10008400A01120167208031955282008F302031D35
:10009400031C59280310F21B5D28F00DF10DF20D1D
:1000A400F30B4D2859280130FC002B206028023026
:0E00B400FC001F2060280430FC001B20080008
:1000C2007B14FB1F6C28F201FA1FFF30F200F100D3
:0A00D200F000FA0DF20CFF300800F8
:1000DC00710DF80DF90D7408F8027508031C750FF5
:1000EC00F902F00DF10D0F30FC00710DF80DF90D4A
:1000FC007408701C8728F8027508031C750FF90228
:10010C008C28F80775080318750FF907F00DF10D19
:10011C00FC0B7B28701898287408F80775080318CE
:08012C00750FF907000008003F
:1001340083120313B41BA0288812A1288816341B29
:10014400A5280812A6280816B41AAA288811AB28CC
:100154008815341AAF280811B02808152718B428B0
:100164000814B5280810881403208810B419BC2872
:100174008812BD2888163419C1280812C228081606
:10018400B418C6288811C72888153418CB28081134
:10019400CC2808152718D0280814D128081088144A
:1001A40003208810271CD8280820D92813200800E9
:1001B400FB14FB1FE428FF30F300F200F100F00011
:0801C400FA0DF20CFF300800F7
:0E01CC001D3083120313FD00FD0BEA2808000E
:1001DA008312031327103308B4009A202714080047
:1001EA00831203137008F8007108F000F101F2019C
:1001FA00F301FB01FC019630F300FA01F01F0B2911
:10020A00F809F009F80A0319F00AFA177008F10058
:0C021A007808F000F801F2013220080022
:10022600831203139F01C0309F0483161F179F1765
:1002360083123308F000F00D7010F00D7010F00D01
:10024600701070089F041F14E6201F151F1D2D290E
:10025600000029291F101E08F100F00183161E0850
:08026600F0040030F10408006F
:10026E00831203137408003A031D46297508003AD9
:10027E00031D4629FF30F0007F30F1009F298312C5
:10028E000313FD01F901F80171087004031900341C
:10029E0071087506FA00FA1BFD09FB01F51F5C29B2
:1002AE00F409F509F40A0319F50AF11F6329F00997
:1002BE00F109F00A0319F10A71087504FA00FA1B24
:1002CE0078296E207B188B29FD1F0034F009F10967
:1002DE00F00A0319F10AF809F909F80A0319F90ADB
:1002EE000034F51F8729F11B83297108F900700866
:1002FE00F800F101F0016B29F101F001F00A003470
:10030E00F109F009FB0A6829F80A0319F90A7408B9
:10031E007802031D6B2975087902031D6B29F901FB
:10032E00F801F00A0319F10AF11F6B290000FF34DE
:02033E000800B5
:0E0340008312031326088A0025088200080095
:10034E0083120313FB017308031D77080319FE299B
:10035E0072087606FA007708F3077E30031CBB2975
:10036E00F3020318012ABE29F302031C042A7208A1
:10037E00F8007108FC007008FD00F817F61703105E
:10038E00F201F101F0011830A0007D1CD82974088B
:10039E00F00775080318750FF10776080318760F26
:1003AE00F207F20CF10CF00CF80CFC0CFD0C031027
:1003BE00A00BCC29F21BE829F80DF00DF10DF20D72
:1003CE00F3037B1B701CFA29F81FFA29F00A031994
:1003DE00F10A0319F20A031DFA29F20CF10CF00CC2
:1003EE00F30A0319012AFA1FF2130030062A01300C
:1003FE002B20062A0230DA20062A04301F200000A5
:02040E000800E4
:1004100083120313FB0173080319452A7208FA00BB
:10042000F2178E30F302F31F482AF309F30A08305B
:100430007302031C2B2AF300F10D7208F100F20184
:1004400008307302031C2B2AF300F10DF10173082D
:10045000031D0310332A73080319332A0310F20C07
:10046000F10CF30B2E2A7B1B711C3D2A031C3D2A29
:10047000F10A0319F20AF21B542AFA1F572AF20949
:10048000F109F10A0319F20A572AF201F101572A78
:100490007B14FB1F5A2AF201FA1F5A2AFF30F2007E
:1004A000F100FA0DF20C5A2A0130FC005C2A0030EF
:1004B000FC005C2AFF30FC00FC080319602A612064
:0A04C0007108F0007208F100080056
:1004CA00831603138810081008118811081288125D
:1004DA00831288100810881208128811081108203F
:1004EA000820082088150815881403208810082079
:1004FA0088140320881008208814032088100820F4
:10050A0008118814032088100820881403208810F2
:10051A008811881688140320881008208812081564
:10052A0088140320881008118814032088100820D2
:10053A0088140320881008158814032088100820BE
:10054A0008118814032088108816081688150815BB
:0C055A00881403208810082027140800D3
:1005660083120313FB01FA01F9018030F800F10C44
:10057600F00C031CC72A7408F90775080318750FD1
:10058600FA070318FB0A0310F01FCF2A7408FA07AC
:1005960075080318750FFB07FB0CFA0CF90CF80C21
:1005A600031CBA2A7B08F3007A08F2007908F100E6
:0605B6007808F0000800C7
:1005BC0083120313A901AA01AB01AC01B3011321EE
:1005CC00F520E330F4003630F5007A30F6007D305B
:1005DC00F700A72108227008B1007108B20064303E
:1005EC00F4000030F5003108F0003208F10037213A
:1005FC007008AF007108B0002F08F0003008F1004F
:10060C006430F4000030F500B3227008AD007108BE
:10061C00AE002D083102F0002E08031C013E320200
:10062C00F1000A30F4000030F50037217008A90001
:10063C007108AA000A30F4000030F500B3222D082E
:10064C00F0072E080318013EF10770083102AB00C9
:10065C007108031C013E3202AC0030302F07F00051
:10066C0030080318013EF10028088400700880004F
:10067C00280A840030302907F0002A080318013EAC
:10068C00F1007008800002302807840030302B07FE
:10069C00F0002C080318013EF100700880000800DF
:0E06AC00FF308316031385000E309F000800F8
:1006BA006F2B803083120313A800822BC030A8004E
:1006CA00822B9430A800822BD430A800822B803051
:1006DA00A800822B831203132808013A03195E2B00
:1006EA002808023A0319632B2808033A0319662BD0
:1006FA002808043A0319692B6C2B2903F0002808EF
:10070A00F0077008A8007008B4009A202710AB01FF
:10071A002B082A078400000803199B2B2B082A0799
:10072A0084000008B300ED20AB0A8D2B27140800C3
:10073A0065220130B4009A200C30B4009A200800D7
:10074A00A0218A110A128000840AA50A0319A60A9E
:08075A00F003031DA52B0800AC
:10076200303083120313A1003030A2003030A300D6
:10077200A4019D23562321308312A800DE220130DA
:10078200A8000130A9002130AA005D23BC2BC82B90
:02400E004A2F37
:00000001FF
