:020000000E2CC4
:08000600FA1FF213003008009C
:0A000E0000000000000000000800E0
:100018001D3083120313FC009130FD00FD0B1228E4
:06002800FC0B1228080089
:10002E00423083120313FD00FD0B1B280000080055
:10003E007B15FB1F29280130F300F201F101F001BD
:08004E00FA0DF20CFF3008006E
:0E005600F201F101F001F801F30100300800A1
:10006400710DF80DF90D7408F8027508031C750F6D
:10007400F902F00DF10D0F30FC00710DF80DF90DC2
:100084007408701C4B28F8027508031C750FF902DC
:100094005028F80775080318750FF907F00DF10DCE
:1000A400FC0B3F2870185C287408F80775080318BF
:0800B400750FF90700000800B8
:1000BC0083120313F8010830FC00700DF80D74085E
:1000CC00F80203186B28F8070310F00DFC0B6328DB
:0200DC0008001A
:1000DE007B14FB1F7A28F201FA1FFF30F200F100A9
:0A00EE00F000FA0DF20CFF300800DC
:1000F800FB14FB1F8628FF30F300F200F100F0002C
:08010800FA0DF20CFF300800B3
:1001100083120313C81B8E2888128F288816481B49
:100120009328081294280816C81A98288811992824
:100130008815481A9D2808119E2808153318A228EA
:100140000814A3280810881407208810C819AA28A2
:100150008812AB2888164819AF280812B02808164C
:10016000C818B4288811B52888154818B928081166
:10017000BA2808153318BE280814BF280810881498
:1001800007208810331CC6280C20C7281720080019
:0E0190001D3083120313FD00FD0BCC28080068
:10019E00A0017208031DE4287108F2007008F10036
:1001AE00F001A0157208031DE4287108F200F10198
:1001BE00A011201672080319F2282008F302031D5D
:1001CE00031CF6280310F21BFA28F00DF10DF20DA8
:1001DE00F30BEA28F6280130FC002B20FD28023014
:0E01EE00FC001F20FD280430FC000320080048
:1001FC0083120313C6010330460203180C29460868
:10020C004507840020308000C60A012946084507AE
:10021C0084008001C60346084507C7000A30F40075
:10022C004408F0005E207808F0003030F0074708F2
:10023C008400700880000A30F4004408F0005E204E
:10024C007008C4007008003A031D2D292F29C6031D
:04025C00112908005C
:100260008312031333104408C80088203314080095
:1002700083120313FB017308031D770803198F29E9
:1002800072087606FA007708F3077E30031C4C29C3
:10029000F302031892294F29F302031C95297208CF
:1002A000F8007108FC007008FD00F817F61703103D
:1002B000F201F101F0011830A0007D1C69297408D9
:1002C000F00775080318750FF10776080318760F05
:1002D000F207F20CF10CF00CF80CFC0CFD0C031006
:1002E000A00B5D29F21B7929F80DF00DF10DF20D2F
:1002F000F3037B1B701C8B29F81F8B29F00A031951
:10030000F10A0319F20A031D8B29F20CF10CF00C0F
:10031000F30A03199229FA1FF213003097290130CA
:100320002B20972902307C20972904301F200000C1
:020330000800C3
:1003320083120313440803178D0083168C130C14C5
:0803420083120C08F000080012
:10034A00831203137008F8007108F000F101F2013A
:10035A00F301FB01FC019630F300FA01F01FBB29FF
:10036A00F809F009F80A0319F00AFA177008F100F7
:0C037A007808F000F801F201CF20080024
:1003860083160313881008100811881108128812A2
:1003960083128810081088120812881108110C2080
:1003A6000C200C20881508158814072088100C20AE
:1003B6008814072088100C208814072088100C2029
:1003C60008118814072088100C208814072088102C
:1003D600881188168814072088100C2088120815A2
:1003E60088140720881008118814072088100C200C
:1003F60088140720881008158814072088100C20F8
:1004060008118814072088108816081688150815FC
:0C0416008814072088100C203314080004
:10042200831203137408003A031D202A7508003A48
:10043200031D202AFF30F0007F30F100792A831259
:100442000313FD01F901F801710870040319003466
:1004520071087506FA00FA1BFD09FB01F51F362A21
:10046200F409F509F40A0319F50AF11F3D2AF00906
:10047200F109F00A0319F10A71087504FA00FA1B6E
:10048200522A32207B18652AFD1F0034F009F10937
:10049200F00A0319F10AF809F909F80A0319F90A25
:1004A2000034F51F612AF11B5D2A7108F9007008FA
:1004B200F800F101F001452AF101F001F00A0034DF
:1004C200F109F009FB0A422AF80A0319F90A740829
:1004D2007802031D452A75087902031D452AF90190
:1004E200F801F00A0319F10AF11F452A0000FF344E
:0204F200080000
:1004F40083120313FB01FA01F9018030F800F10CB7
:10050400F00C031C8E2A7408F90775080318750F7C
:10051400FA070318FB0A0310F01F962A7408FA0757
:1005240075080318750FFB07FB0CFA0CF90CF80C93
:10053400031C812A7B08F3007A08F2007908F10091
:060544007808F000080039
:10054A0083120313FB0173080319E22A7208FA00E3
:10055A00F2178E30F302F31FE52AF309F30A083083
:10056A007302031CC82AF300F10D7208F100F201AC
:10057A0008307302031CC82AF300F10DF101730855
:10058A00031D0310D02A73080319D02A0310F20C92
:10059A00F10CF30BCB2A7B1B711CDA2A031CDA2A17
:1005AA00F10A0319F20AF21BF12AFA1FF42AF209D4
:1005BA00F109F10A0319F20AF42AF201F101F42A03
:1005CA007B14FB1FF72AF201FA1FF72AFF30F20009
:1005DA00F100FA0DF20CF72A0130FC00F92A00307A
:1005EA00FC00F92AFF30FC00FC080319FD2A6F20E1
:0A05FA007108F0007208F10008001B
:0E0604008312031338088A00370882000800AA
:10061200831203139F01C0309F0483161F179F1775
:1006220083124408F000F00D7010F00D7010F00D00
:10063200701070089F041F14C8201F151F1D232B44
:1006420000001F2B1F101E08F100F00183161E0868
:08065200F0040030F10408007F
:10065A003F2B803083120313B900522BC030B900EC
:10066A00522B9430B900522BD430B900522B80301F
:10067A00B900522B831203133908013A03192E2B9E
:10068A003908023A0319332B3908033A0319362B6E
:10069A003908043A0319392B3C2B3A03F00039087C
:1006AA00F0077008B9007008C80088203310BC0130
:1006BA003C083B078400000803196B2B3C083B07E6
:1006CA0084000008C4003021BC0A5D2B33140800E2
:1006DA0083120313BA01BB01BC01BD01C401092382
:1006EA00A521E330F4003630F5007A30F6007D308B
:1006FA00F7003821A5227008C2007108C3006430CF
:10070A00F4000030F5004208F0004308F10011221D
:10071A007008C0007108C1004008F0004108F100EB
:10072A006430F4000030F5007A227008BE007108C7
:10073A00BF003E084202F0003F08031C013E43028C
:10074A00F1000A30F4000030F50011227008BA00F6
:10075A007108BB000A30F4000030F5007A223E0826
:10076A00F0073F080318013EF10770084202BC0077
:10077A007108031C013E4302BD0030304007F000FF
:10078A003908840070088000390A840030303A073A
:10079A00F0007008800002303907840030303C07CE
:0807AA00F00070088000080057
:0C07B200831603138701831287010800DF
:1007BE00FF3083160313860088308B000117080064
:1007CE0002238A110A128000840AB70A0319B80A92
:0807DE00F003031DE72B0800E6
:0E07E600FF308316031385000E309F000800BD
:1007F400103083120313C400992170080313C4003A
:080804003908C500FE200800C0
:10080C00C3210130C80088200C30C80088200800A3
:10081C00303083120313A1003030A2003030A3001B
:10082C00A4015030A5006C30A6006130A7006330E5
:10083C00A8006530A9007330AA003A30AB00AC01B7
:10084C005430AD006530AE006D30AF007030B0008C
:10085C003A30B100B2010624F323DF23D92301304F
:10086C00B9000130BA002D30BB002D230230B90085
:10087C000130BA002530BB002D232130B9006D2387
:10088C003430B900FA230130B9000830BA002130F5
:10089C00BB002D230230B9000930BA003430BB0044
:0608AC002D23352C582C11
:02400E004A2F37
:00000001FF
