:02000000B92B1A
:0A00060000000000000000000800E8
:100010001D3083120313FC009130FD00FD0B0E28F0
:06002000FC0B0E28080095
:10002600423083120313FD00FD0B17280000080061
:08003600FA1FF213003008006C
:10003E007B15FB1F29280130F300F201F101F001BD
:08004E00FA0DF20CFF3008006E
:0E005600F201F101F001F801F30100300800A1
:10006400A0017208031D47287108F2007008F1000E
:10007400F001A0157208031D47287108F200F10170
:10008400A01120167208031955282008F302031D35
:10009400031C59280310F21B5D28F00DF10DF20D1D
:1000A400F30B4D2859280130FC002B206028023026
:0E00B400FC001F2060280430FC001B20080008
:1000C200710DF80DF90D7408F8027508031C750F0F
:1000D200F902F00DF10D0F30FC00710DF80DF90D64
:1000E2007408701C7A28F8027508031C750FF9024F
:1000F2007F28F80775080318750FF907F00DF10D41
:10010200FC0B6E2870188B287408F8077508031802
:08011200750FF9070000080059
:10011A007B14FB1F9828F201FA1FFF30F200F1004E
:0A012A00F000FA0DF20CFF3008009F
:0E0134001D3083120313FD00FD0B9E280800F2
:10014200FB14FB1FAB28FF30F300F200F100F000BC
:08015200FA0DF20CFF30080069
:10015A0083120313B41BB3288812B4288816341BDD
:10016A00B8280812B9280816B41ABD288811BE285A
:10017A008815341AC2280811C32808152718C72851
:10018A000814C8280810881403208810B419CF2826
:10019A008812D02888163419D4280812D5280816A7
:1001AA00B418D9288811DA2888153418DE280811D5
:1001BA00DF2808152718E3280814E42808108814EB
:1001CA0003208810271CEB280820EC28132008009D
:1001DA0083120313FB017308031D770803194429CB
:1001EA0072087606FA007708F3077E30031C0129A5
:1001FA00F302031847290429F302031C4A29720847
:10020A00F8007108FC007008FD00F817F6170310D3
:10021A00F201F101F0011830A0007D1C1E297408BA
:10022A00F00775080318750FF10776080318760F9B
:10023A00F207F20CF10CF00CF80CFC0CFD0C03109C
:10024A00A00B1229F21B2E29F80DF00DF10DF20D5B
:10025A00F3037B1B701C4029F81F4029F00A03197D
:10026A00F10A0319F20A031D4029F20CF10CF00CF1
:10027A00F30A03194729FA1FF21300304C290130F7
:10028A002B204C290230A1204C2904301F200000C9
:02029A0008005A
:10029C00831203137008F8007108F000F101F201E9
:1002AC00F301FB01FC019630F300FA01F01F642905
:1002BC00F809F009F80A0319F00AFA177008F100A6
:0C02CC007808F000F801F2013220080070
:1002D80083120313FB0173080319A9297208FA0092
:1002E800F2178E30F302F31FAC29F309F30A083032
:1002F8007302031C8F29F300F10D7208F100F2015B
:1003080008307302031C8F29F300F10DF101730803
:10031800031D031097297308031997290310F20C7A
:10032800F10CF30B92297B1B711CA129031CA12939
:10033800F10A0319F20AF21BB829FA1FBB29F209BC
:10034800F109F10A0319F20ABB29F201F101BB29EB
:100358007B14FB1FBE29F201FA1FBE29FF30F200F1
:10036800F100FA0DF20CBE290130FC00C029003062
:10037800FC00C029FF30FC00FC080319C4298D20AB
:0A0388007108F0007208F10008008F
:100392008312031327103308B400AD20271408007A
:1003A200831203139F01C0309F0483161F179F17E8
:1003B20083123308F000F00D7010F00D7010F00D84
:1003C200701070089F041F149A201F151F1DEB291F
:1003D2000000E7291F101E08F100F00183161E0815
:0803E200F0040030F1040800F2
:1003EA00831203137408003A031D042A7508003A9D
:1003FA00031D042AFF30F0007F30F1005D2A8312CA
:10040A000313FD01F901F80171087004031900349E
:10041A0071087506FA00FA1BFD09FB01F51F1A2A75
:10042A00F409F509F40A0319F50AF11F212AF0095A
:10043A00F109F00A0319F10A71087504FA00FA1BA6
:10044A00362A61207B18492AFD1F0034F009F10978
:10045A00F00A0319F10AF809F909F80A0319F90A5D
:10046A000034F51F452AF11B412A7108F90070086A
:10047A00F800F101F001292AF101F001F00A003433
:10048A00F109F009FB0A262AF80A0319F90A74087D
:10049A007802031D292A75087902031D292AF90100
:1004AA00F801F00A0319F10AF11F292A0000FF34A2
:0204BA00080038
:1004BC0083120313FB01FA01F9018030F800F10CEF
:1004CC00F00C031C722A7408F90775080318750FD1
:1004DC00FA070318FB0A0310F01F7A2A7408FA07AC
:1004EC0075080318750FFB07FB0CFA0CF90CF80CCC
:1004FC00031C652A7B08F3007A08F2007908F100E6
:06050C007808F000080071
:100512008316031388100810081188110812881214
:1005220083128810081088120812881108110820F6
:100532000820082088150815881403208810082030
:1005420088140320881008208814032088100820AB
:1005520008118814032088100820881403208810AA
:10056200881188168814032088100820881208151C
:10057200881403208810081188140320881008208A
:100582008814032088100815881403208810082076
:100592000811881403208810881608168815081573
:0C05A2008814032088100820271408008B
:0E05AE008312031326088A0025088200080025
:1005BC00F02A803083120313A800032BC030A8004C
:1005CC00032B9430A800032BD430A800032B8030CD
:1005DC00A800032B831203132808013A0319DF2AFE
:1005EC002808023A0319E42A2808033A0319E72ACF
:1005FC002808043A0319EA2AED2A2903F0002808EE
:10060C00F0077008A8007008B400AD202710AB01EB
:10061C002B082A078400000803191C2B2B082A0717
:10062C0084000008B300C921AB0A0E2B2714080064
:0E063C00FF308316031385000E309F00080068
:10064A00FF3083160313860088308B0001170800D9
:10065A0089220130B400AD200C30B400AD2008006E
:10066A00D7228A110A128000840AA50A0319A60A47
:08067A00F003031D352B0800FD
:1006820083120313A901AA01AB01AC01B301D12169
:100692004E21E330F4003630F5007A30F6007D303A
:1006A200F700ED206C217008B1007108B2006430CF
:1006B200F4000030F5003108F0003208F100F521B5
:1006C2007008AF007108B0002F08F0003008F10088
:1006D2006430F4000030F5005E227008AD0071084D
:1006E200AE002D083102F0002E08031C013E32023A
:1006F200F1000A30F4000030F500F5217008A9007D
:100702007108AA000A30F4000030F5005E222D08BC
:10071200F0072E080318013EF10770083102AB0002
:100722007108031C013E3202AC0030302F07F0008A
:1007320030080318013EF100280884007008800088
:10074200280A840030302907F0002A080318013EE5
:10075200F1007008800002302807840030302B0737
:10076200F0002C080318013EF10070088000080018
:10077200303083120313A1003030A2003030A300C6
:10078200A4012D231E23252321308312A8004123F7
:100792000130A8000130A9002130AA00DE22C52BB9
:0207A200D12B59
:02400E004A2F37
:00000001FF
