:020000007A2E56
:10000800FF00030E8301EB000A08EA008A010B1CBB
:100018001628061F11280130A100861F1528023056
:10002800A1000B106A088A006B0E8300FF0E7F0E7A
:020038000900BD
:0E003A00F201F101F001F801F30100300800BD
:100048007B15FB1F2E280130F300F201F101F001AE
:08005800FA0DF20CFF30080064
:08006000FA1FF2130030080042
:10006800FB14FB1F3E28FF30F300F200F100F00004
:08007800FA0DF20CFF30080044
:10008000423083120313FD00FD0B442800000800DA
:10009000A0017208031D5D287108F2007008F100CC
:1000A000F001A0157208031D5D287108F200F1012E
:1000B000A0112016720803196B282008F302031DF3
:1000C000031C6F280310F21B7328F00DF10DF20DC5
:1000D000F30B63286F280130FC001D2076280230C6
:0E00E000FC00242076280430FC0030200800AC
:0A00EE000000000000000000080000
:1000F8007C18B228FC1883287C19D1287C28A001F8
:100108007208031DA3287108F2007008F10078082E
:10011800F000F801A0157208031DA3287108F20069
:100128007008F100F001A01120167208031DA32821
:100138007108F200F101A01572080319C5282008FA
:10014800F302031D031CC9280310F21BB228F80D83
:10015800F00DF10DF20DF30BA928C9287B1B701CBB
:10016800CD28F81FCD28F00A0319F10A0319F20A5D
:10017800031DCD28F20CF10CF00CF30A0319D12859
:10018800CD280130FC001D20D4280230FC0024209A
:10019800D4280430FC003020D4280830FC00342057
:0401A800000008004B
:1001AC001D3083120313FC009130FD00FD0BDC2885
:0601BC00FC0BDC2808002A
:1001C20083120313F8010830FC00700DF80D740857
:1001D200F8020318EE28F8070310F00DFC0BE628CE
:0201E200080013
:1001E4008312031372087606A000F801F90173085C
:1001F4007702031C15297708FD007308F7007D08B2
:10020400F3007608FD007208F6007D08F200750818
:10021400FD007108F5007D08F1007408FD00700808
:10022400F4007D08F000770803198E297208FA009B
:10023400F217F61777087302F700031948290830F4
:100244007702031C3E29F7007408F9007508F400CE
:100254007608F500F60108307702031C3E29F70002
:100264007408F9007508F400F50108307702031CDE
:100274003E297A08F2008E297708031948290310C9
:10028400F60CF50CF40CF90CF70B4129A01F5529B9
:10029400F909F409F509F609F90A0319F40A031925
:1002A400F50A0319F60A7908F80774080318740F95
:1002B400F00775080318750FF10776080318760F11
:1002C400F207A01B6E29031C7E29F20CF10CF00C22
:1002D400F80CF30F7E298A2903188229F809F009FA
:1002E400F109F209F80A0319F00A0319F10A0319CA
:1002F400F20A8030FA0686290130FC007C2090291D
:100304000230FC007C2090290430FC004820902915
:100314000830FC00342090290030FC000000080064
:1003240083160313D61B9929831288129B298312DF
:1003340088168316561BA12983120812A329831237
:1003440008168316D61AA92983128811AB29831299
:1003540088158316561AB12983120811B3298312FA
:1003640008156E18B7290814B829081088147720BE
:1003740088108316D619C12983128812C3298312BF
:10038400881683165619C92983120812CB29831299
:1003940008168316D618D12983128811D3298312FB
:1003A400881583165618D92983120811DB2983125C
:1003B40008156E18DF290814E0290810881477201E
:0E03C40088106E1CE729D620E829402008008A
:1003D2007B14FB1FF429F201FA1FFF30F200F10037
:0A03E200F000FA0DF20CFF300800E5
:0E03EC001D3083120313FD00FD0BFA290800DB
:0603FA00FB15FF300800B6
:10040000831203139F01C0309F0483161F179F1789
:100410005208F000F00D7010F00D7010F00D70101B
:10042000700883129F041F14F6211F151F1D1A2A1E
:100430000000162A1F101E08F100F00183161E0886
:08044000F0040030F104080093
:10044800831203137008F100F0010830FC007108F2
:10045800F40C0318332AFC0B2C2AF1010034031086
:10046800382AF40C0318F107F10CF00CFC0B352AB0
:0204780008007A
:10047A00831203136E1083165208D60092216E144B
:02048A00080068
:10048C00831603178C1C4C2A0000462A03135208AF
:10049C00831203178D00831603135308831203175B
:1004AC008C0083168C130C150B08F0008B13553035
:1004BC008D00AA308D008C14F01B662A8B13672AD2
:0604CC008B170C11080063
:1004D200831603135208831203178D0083168C139D
:0A04E2000C1483120C08F00008004F
:1004EC00831603138810081008118811081288123B
:1004FC008312881008108812081288110811D6204F
:10050C00D620D62088150815881477208810D62078
:10051C00881477208810D620881477208810D6204D
:10052C000811881477208810D6208814772088101A
:10053C0088118816881477208810D6208812081500
:10054C008814772088100811881477208810D620FA
:10055C008814772088100815881477208810D620E6
:10056C000811881477208810881608168815081525
:0C057C00881477208810D6206E14080028
:0E058800831203136D088A006C0882000800BD
:1005960083120313FB017308031D77080319222B2B
:1005A60072087606FA007708F3077E30031CDF2A06
:1005B600F3020318252BE22AF302031C282B7208E8
:1005C600F8007108FC007008FD00F817F617031014
:1005D600F201F101F0011830A0007D1CFC2A74081C
:1005E600F00775080318750FF10776080318760FDC
:1005F600F207F20CF10CF00CF80CFC0CFD0C0310DD
:10060600A00BF02AF21B0C2BF80DF00DF10DF20DDC
:10061600F3037B1B701C1E2BF81F1E2BF00A0319FD
:10062600F10A0319F20A031D1E2BF20CF10CF00C51
:10063600F30A0319252BFA1FF21300302A2B013077
:100646001D202A2B023034202A2B043024200000BF
:0206560008009A
:10065800831203137008F8007108F000F101F20129
:10066800F301FB01FC019630F300FA017008F10078
:0C0678007808F000F801F20148200800AA
:10068400831203137408003A031D5D2B7508003AA6
:10069400031D5D2B7608003A031D5D2B7708003A95
:1006A400031D5D2BFF30F000FF30F1007F30F200BE
:1006B400FF30F300F82B8312031377080319EC2B94
:1006C40073080319EF2B720876068039FA00F217C3
:1006D400F617A0017208F8007108FC007008FD000C
:1006E4007408FD027508031C750FFC027608031CD0
:1006F400760FF802F801FC01FD01031C882B03109E
:10070400F20CF10CF00CF80C0130A0007708F302A5
:10071400031C922B7E302007F3070318F22B972B30
:100724007E302007F307031CF52B1830FA07FD0D64
:10073400FC0DF80DF00DF10DF20DA00D7408F00292
:100744007508031C750FF1027608031C760FF2027C
:10075400760DA004201CB02B7D14BB2B7408F0076D
:1007640075080318750FF10776080318760AF2075F
:100774007D10FA031F307A05031D992B7B1B7D1C0A
:10078400E22B0310F00DF10DF20DA00D7408F00230
:100794007508031C750FF1027608031C760FF2022C
:1007A400760D20040139FD070318FC0A0319F80A21
:1007B400031DE22BF80CFC0CFD0CF30A0319F22BBD
:1007C400FA1FF8137808F2007C08F1007D08F000A5
:1007D4000030F72B0130FD21F72B02301D20F72BC1
:0E07E40004303420F72B0830242000000800D9
:0C07F200831203138030F606F22008008A
:1007FE0083120313FB01FC01FA01730803192C2C5D
:10080E00FA13F2178630F302F31B102C0319102C77
:10081E002E2CF309F30A08307302031C1D2CF3006F
:10082E00F20DF2017308031D0310242C7308031933
:10083E00242C0310F20CF30B202C7B1B721C2C2C83
:10084E00031C2C2CF20A0319332CF101362C7B14C9
:10085E00FB1F392CF101392C0130FC003B2C0030F0
:10086E00FC003B2CFF30FC00FC0803193F2CE92157
:06087E007208F000080002
:10088400831203137008F8007108F000F101F201FB
:10089400F301FB01FC019630F300FA01F01F582C20
:1008A400F809F009F80A0319F00AFA177008F100B8
:0C08B4007808F000F801F201482008006C
:1008C00083160313D4010330540203186E2C54080A
:1008D0005307840020308000D40A632C5408530747
:1008E00084008001D40354085307D5000A30F40073
:1008F0005208F000E1207808F0003030F00783164D
:1009000055088400700880000A30F4005208F00096
:10091000E12070088316D2007008003A031D912C64
:08092000932CD403732C080092
:1009280083120313F10180307106F0008030063A1B
:1009380070020318B02C023087060730FB0017300E
:10094800FC006A30FD00FD0BA72CFC0BA72CFB0B51
:0A095800A72C0000F10A972C0800FC
:1009620083160313C701C801C901D20100222C2337
:10097200E330F4003630F5007A30F6007D30F700CF
:10098200CB220030F4000030F5004830F60085300C
:10099200F7004223FF2370088316C700D20100220A
:1009A2002C23E330F4003630F5007A30F6007D3047
:1009B200F700CB2270088316CA007108CB007208B8
:1009C200CC007308CD004708F0006430F400242204
:1009D20042247008F4007108F5007208F6007308EA
:1009E200F70083164A08F0004B08F1004C08F200A9
:1009F2004D08F300F9230030F4000030F5002030F8
:100A0200F6008230F7004223FF2370088316C800E5
:100A1200D20100222C23E330F4003630F5007A3084
:100A2200F6007D30F700CB2270088316CE007108E5
:100A3200CF007208D0007308D1004708F00064307C
:100A4200F400242270088316CA007108CB004808FB
:100A5200F0000A30F400242283164A08F0074B08FB
:100A62000318013EF10742247008F4007108F500F2
:100A72007208F6007308F70083164E08F0004F085C
:100A8200F1005008F2005108F300F923FF23700827
:100A92008316C90030304707F0004608840070080A
:100AA2008000460A840030304807F0007008800059
:100AB20002304607840030304907F0007008800099
:020AC20008002A
:100AC400103083160313D2006922700883160313AF
:0A0AD400D2004608D3006024080099
:100ADE00812D803083160313C600942DC030C600BE
:100AEE00942D9430C600942DD430C600942D8030B1
:100AFE00C600942D831603134608013A0319702D70
:100B0E004608023A0319752D4608033A0319782D43
:100B1E004608043A03197B2D7E2D4703F000460844
:100B2E00F0077008C6007008D60092216E1083166A
:100B3E00C90149084807840000080319AF2D490868
:100B4E00480784000008D2003D228316C90AA02D52
:060B5E0083126E14080072
:100B64008312031307153D30FB00E130FC003F30D6
:100B7400FD00FD0BBB2DFC0BBB2DFB0BBB2D0000A7
:100B8400000007115230FB002B30FC000030FD0048
:100B9400FD0BCA2DFC0BCA2DFB0BCA2D00008715BB
:100BA4003D30FB00E130FC003F30FD00FD0BD82D53
:100BB400FC0BD82DFB0BD82D00000000871108007A
:100BC400103083160313D2006922700383160313B3
:0A0BD400D3001030D20046220800C2
:100BDE0083120313F10180307106F0008030063A63
:100BEE00700203180B2E013087060730FB001730FA
:100BFE00FC006A30FD00FD0B022EFC0B022EFB0BDF
:0A0C0E00022E0000F10AF22D08008A
:100C18008312031307163D30FB00E130FC003F3020
:100C2800FD00FD0B152EFC0B152EFB0B152E0000E1
:100C3800000007125230FB002B30FC000030FD0092
:100C4800FD0B242EFC0B242EFB0B242E00008716F4
:100C58003D30FB00E130FC003F30FD00FD0B322E43
:100C6800FC0B322EFB0B322E00000000871208000E
:100C7800FF3083160313860088308B0001170800A5
:0C0C8800103083160313D200692208000C
:100C9400C4228A110A128000840AEC0A0319ED0A9C
:080CA400F003031D4A2E0800B5
:0E0CAC00FF308316031385000E309F000800F2
:100CBA00103083160313D2006922700A83160313B5
:0A0CCA00D3001030D20046220800CB
:100CD400762201308316D60092210C308316D6007A
:040CE4009221080051
:0C0CE800831603138701831287010800A4
:100CF4008A1500208A116A2656263C267426210865
:100D0400013A031DBE2E44267008003C03189E2E93
:100D1400EF2501308316D600922101308316C600D8
:100D24000330C7005130C8006F25B2250130831647
:100D3400D6009221E225BB2E942401308316D600DE
:100D4400922101308316C6000130C7004330C80029
:100D54006F252930FB009630FC007F30FD00FD0B31
:100D6400B12EFC0BB12EFB0BB12E01308316D60035
:100D7400922183120313A1012108023A031D462F75
:100D8400EF018316C5010130D6009221013083168C
:100D9400C6000130C700A030C8006F258312061CAE
:100DA400F22E01308316C5000130D60092210130A5
:100DB4008316C6000430C700B430C8006F25153050
:100DC400FB004B30FC00BE30FD00FD0BE72EFC0B9E
:100DD400E72EFB0BE72E000001308316D60092218C
:100DE400EF0A0330FB000830FC007730FD00FD0BF8
:100DF400F92EFC0BF92EFB0BF92E6F08323A03196E
:100E04000A2F83164508013A03190A2FF0010C2F03
:100E14000130F00070080319D02E83164508013AFA
:100E2400031D262F0130D600922101308316C600FF
:100E34000330C7005D30C8006F250C2601308316CF
:100E4400D60092215D26432F01300313D600922150
:100E540001308316C6000130C7003430C8006F2546
:100E64001530FB004B30FC00BE30FD00FD0B382F6D
:100E7400FC0B382FFB0B382F000001308316D600F3
:100E8400922183120313A10101308316C60001309D
:100E9400C7002A30C8006F2502308316C60001300F
:100EA400C7002230C8006F2530308316C600B12435
:100EB400C230C60062250130C6000830C700303099
:100EC400C8006F2502308316C6000930C700C2303F
:080ED400C8006F25812E6D2F6F
:10100000213084003C3083120313F0007130EC0077
:101010000730ED008A114A268A15A030840014306A
:101020000313F000AD30EC000730ED008A114A26C2
:101030008A155D3084000D300313F000CF30EC00D2
:101040000730ED008A114A268A15B43084000E302C
:101050000313F000C130EC000730ED008A114A267E
:041060008A150800E5
:020EE2000034DA
:100EE40050346C3461346334653473343A340034CC
:0C0EF400543465346D3470343A340034EA
:080F0000303430343034003489
:100F080059346F34753420346D3475347334743413
:0E0F18002034703461347934203421340034B4
:100F260053346F347234723479342C344634753415
:0C0F36006C346C3420343A34283400341D
:100F4200573465346C3463346F346D346534203413
:080F52003A3429342034003444
:100F5A005734613469347434203466346F347234EB
:100F6A0020347034613479346D3465346E347434B9
:080F7A003A342934203400341C
:100F82005434683461346E346B34203479346F34C1
:0C0F9200753420343A34443420340034E8
:100F9E0047346F346F3464342034423479346534DA
:0A0FAE0020343A3429342034003492
:02400E004A2F37
:020000040000FA
:10420000FF00FF00FF00FF00FF00FF00FF00FF00B6
:10421000FF00FF00FF00FF00FF00FF00FF00FF00A6
:104220002800FF00FF00FF00FF00FF00FF00FF006D
:10423000FF00FF00FF00FF00FF00FF00FF00FF0086
:10424000FF00FF00FF00FF00FF00FF00FF00FF0076
:10425000FF00FF00FF00FF00FF00FF00FF00FF0066
:10426000FF00FF00FF00FF00FF00FF00FF00FF0056
:10427000FF00FF00FF00FF00FF00FF00FF00FF0046
:10428000FF00FF00FF00FF00FF00FF00FF00FF0036
:10429000FF00FF00FF00FF00FF00FF00FF00FF0026
:1042A000FF00FF00FF00FF00FF00FF00FF00FF0016
:1042B000FF00FF00FF00FF00FF00FF00FF00FF0006
:1042C000FF00FF00FF00FF00FF00FF00FF00FF00F6
:1042D000FF00FF00FF00FF00FF00FF00FF00FF00E6
:1042E000FF00FF00FF00FF00FF00FF00FF00FF00D6
:1042F000FF00FF00FF00FF00FF00FF00FF00FF00C6
:10430000FF00FF00FF00FF00FF00FF00FF00FF00B5
:10431000FF00FF00FF00FF00FF00FF00FF00FF00A5
:10432000FF00FF00FF00FF00FF00FF00FF00FF0095
:10433000FF00FF00FF00FF00FF00FF00FF00FF0085
:10434000FF00FF00FF00FF00FF00FF00FF00FF0075
:10435000FF00FF00FF00FF00FF00FF00FF00FF0065
:10436000FF00FF00FF00FF00FF00FF00FF00FF0055
:10437000FF00FF00FF00FF00FF00FF00FF00FF0045
:10438000FF00FF00FF00FF00FF00FF00FF00FF0035
:10439000FF00FF00FF00FF00FF00FF00FF00FF0025
:1043A000FF00FF00FF00FF00FF00FF00FF00FF0015
:1043B000FF00FF00FF00FF00FF00FF00FF00FF0005
:1043C000FF00FF00FF00FF00FF00FF00FF00FF00F5
:1043D000FF00FF00FF00FF00FF00FF00FF00FF00E5
:1043E000FF00FF00FF00FF00FF00FF00FF00FF00D5
:1043F000FF00FF00FF00FF00FF00FF00FF00FF00C5
:00000001FF

